:020000040800F2
:1000000020070020B5010008DD120008D512000805
:10001000D912000871020008C51400080000000091
:10002000000000000000000000000000B9140008FB
:100030007502000800000000E1120008BD1400086D
:10004000CF010008CF010008CF010008CF01000850
:10005000CF010008CF010008CF010008CF01000840
:10006000CF010008CF010008CF010008CF01000830
:10007000CF010008CF010008CF010008CF01000820
:10008000CF010008CF010008CF010008CF01000810
:10009000CF010008CF010008CF010008CF01000800
:1000A000CF010008CF010008CF010008CF010008F0
:1000B000CF010008CF010008CF010008CF010008E0
:1000C000CF010008CF010008CF010008CF010008D0
:1000D000CF010008CF010008CF010008CF010008C0
:1000E000CF010008CF010008CF01000800F002F89E
:1000F00000F050F814A696E8000CB244B344DA4578
:1001000001D100F047F8BAE80F000FA696E83000DA
:10011000A5EB040504EB0607AAEB0704A7F101070A
:100120004FEA15154FEA3414A4F10104AC4201D38F
:1001300000F030F813F0010F18BFFB1A43F0010371
:1001400000F001F8DBE7184784280000A42800002D
:10015000103A24BF78C878C1FAD8520724BF30C8F3
:1001600030C144BF04680C60704700007047000055
:100170000023002400250026103A28BF78C1FBD8B0
:10018000520728BF30C148BF0B6070471FB51FBD65
:1001900010B510BD00F031F81146FFF7F7FF01F080
:1001A00023FD00F04FF803B4FFF7F2FF03BC00F0AB
:1001B00057F800000948804709480047FEE7FEE776
:1001C000FEE7FEE7FEE7FEE7FEE7FEE7FEE7FEE707
:1001D00004480549054A064B70470000C114000851
:1001E000ED0000082001002020070020200300204F
:1001F00020030020704770477047754600F02CF8C8
:10020000AE4605006946534620F00700854618B003
:1002100020B5FFF7DDFFBDE820404FF000064FF0AE
:1002200000074FF000084FF0000BAC46ACE8C009E7
:10023000ACE8C009ACE8C009ACE8C00921F007018E
:100240008D46704710B50446AFF300802046BDE8E8
:100250001040FFF7A8BF00000048704710000020C2
:1002600001491820ABBEFEE72600020070470000DF
:10027000FEE7000070470000B0B5044600F024F926
:10028000054640F20000C2F200000078611C18BF71
:10029000044400BF00F018F9401BA042FAD3B0BDDF
:1002A0002DE9F04F82B00E68002E00F0FD8041F283
:1002B0000042C4F20102042340F2004E904208BF03
:1002C00003234FF6FF7CC4F2010E009300240123A8
:1002D000C1F2100C4FF0000A4FF000094BE000BFD4
:1002E00041F20002C4F20102009F904208BF0227BF
:1002F00004F00C030F229A402BEA020207FA03F3E0
:100300004FEA9A051A4346F825204E6840F20C45FC
:10031000F202DEF8082054BF22EA080242EA08028C
:10032000C4F20105CEF808202A68B30254BF22EABD
:10033000080242EA08022A60B303DEF8042054BF30
:1003400022EA080242EA0802F303CEF80420DEF8AB
:1003500000204FF0010354BF22EA080242EA0802DB
:10036000CEF800200E680AF1010A36FA0AF204F10A
:10037000040400F0998003FA0AFB16EA0B08F1D096
:100380004E68664512DC122E56D8DFE806F0350BB3
:100390004D49555555555555555555555555554531
:1003A000510000BFD1F80C9046E000BF4FF6FF723D
:1003B000C1F2210296420FDC0022C1F211029642E4
:1003C0001AD00022C1F21202964215D00022C1F2C8
:1003D0002102964210D02FE00022C1F22202964262
:1003E0000AD00022C1F23102964205D00022C1F2A9
:1003F0003202964220D100BF8A684AB1012A14BF56
:10040000C0F814B0C0F810B04FF0080914E000BFF5
:100410004FF0040910E000BFCA6802F104090BE0C4
:100420004FF0000908E000BFCA6802F1080903E0C4
:10043000CA6802F10C0900BF02462646B8F5807F63
:1004400024BF0432203E17680F25B54027EA050572
:1004500009FA06F635431560CA79D2067FF582AFF0
:1004600041F21803C4F202031A68AEF57E7642F038
:1004700001021A601A6802F001020192019A2AF040
:10048000030256F802B040F60002C4F201029042A4
:1004900008D040F60042C4F2010290427FF420AF3F
:1004A000012725E7002723E702B0BDE8F08F000011
:1004B0008068084018BF012070470000002A08BF6C
:1004C000090401617047000040F21810C2F20000F8
:1004D0000068704740F2000040F21811C2F20000BC
:1004E000C2F2000100780A681044086070470000FA
:1004F00080B542F20000C4F20200016841F0100130
:100500000160032000F07AF80F2000F005F800F0F9
:1005100027F8002080BD000070B540F20006C2F24E
:10052000000640F20C013278C2F200014FF47A73F7
:100530000968B3FBF2F20446B1FBF2F1084600F0A1
:10054000DBFC0F2C4FF0010508D838B94FF0FF3015
:1005500021460022002500F025F87460284670BD71
:1005600082B041F21800C4F202000168022241F098
:1005700001010160016801F00101019101994168E7
:1005800041F080514160406800F080500090009838
:100590000420C4F20100016862F31A61016002B034
:1005A0007047000010B54EF60C5CCEF2000CDCF883
:1005B0000030C3F3022E8EF00704042C28BF04245D
:1005C000BEF103034FF0FF3E0EFA04F438BF0023E0
:1005D000A14399400EFA03F39A43114300F00F022E
:1005E00000F160430901043A03F5644362440028C2
:1005F00048BF02F10C03197010BD00004EF60C51FB
:10060000CEF200010A684FF6FF031A4060F30A2297
:1006100042F0806040F0FD7008607047002804BF21
:10062000012070472DE9F04381B042F20008C4F286
:1006300002080446D8F800000D4600F00700814289
:100640000CD9D8F8000020F007002843C8F80000B3
:10065000D8F8000000F00700A8426CD1206841F2F1
:1006600004098107C4F2020917D5410705D5D9F855
:10067000001041F4E061C9F80010010705D5D9F870
:10068000001041F46051C9F80010D9F80010A268B8
:1006900021F0F0011143C9F80010C00742D1D8F889
:1006A000000000F0070085420CD2D8F8000020F0CE
:1006B00007002843C8F80000D8F8000000F0070041
:1006C000A84238D12068410707D5D9F80010E26860
:1006D00021F4E0611143C9F80010000708D5D9F8EA
:1006E0000000216920F4605040EAC100C9F8000010
:1006F000D9F8002002F00C00082841F20020C0F2D6
:100700007A004DD142F66813C2F38341C0F600036C
:10071000595CD20338D440F60010C0F23D00484383
:100720003EE000BF606859F8041C022808D0012888
:1007300026D1890306D4012001B0BDE8F08300BFB3
:100740008901F8D5D9F8001021F003010843C9F850
:100750000000FFF7B9FE064641F28837D9F80000DD
:10076000616800F00C00B0EB810F98D0FFF7ACFE91
:10077000801BB842F2D9032001B0BDE8F08300BF6E
:100780008907D8D5DEE700BFD9F8002042F6661306
:10079000C2F34042C0F600039A5C4843B0FBF2F05B
:1007A000D9F8001042F65612C1F30311C0F6000248
:1007B000515C40F20C0220FA01F140F20400C2F256
:1007C00000000068C2F200021160FFF7A5FE0020E1
:1007D00001B0BDE8F0830000002804BF012070478D
:1007E0002DE9F04182B00446007841F20006C007CE
:1007F000C4F202060CD0706800F00C00042840F02F
:1008000081803068800303D56068002800F046814D
:10081000207880071BD5706810F00C0F09D0706825
:1008200000F00C00082840F087807068C00300F1D9
:1008300083803068800703D52069012840F02E812D
:100840003068616920F0F80040EAC100306020782B
:10085000000713D4207840072CD4E569002D00F060
:100860001881706800F00C00082840F0A780012D66
:1008700040F00481012002B0BDE8F081A0690028A9
:1008800000F084800020C4F242200121C0F88014CE
:10089000FFF71AFE054600BF706A800700F1B280BC
:1008A000FFF712FE401B0228F6D9032002B0BDE874
:1008B000F08100BFF0695FEAC00808D4F06940F039
:1008C0008050F061F06900F080500090009847F28D
:1008D0000007C4F200073868C00549D4386840F4FE
:1008E00080703860FFF7F0FD054600BF3868C0052E
:1008F0003ED4FFF7E9FD401B6428F7D9032002B07E
:10090000BDE8F081706800F00C00082803D1706821
:10091000C0033FF576AF61683068002900F00C81B4
:10092000B1F5A02F00F00081B1F5803F40F01A81B1
:1009300040F480301CE100BF2069002840F2000034
:10094000C4F2422000F0888001210160FFF7BCFD65
:10095000054600BF306880073FF572AFFFF7B4FD72
:10096000401B0228F6D9032002B0BDE8F08100BF89
:10097000E168306A002900F09D80052900F092802E
:10098000012940F0AF8040F00100B1E00020C4F246
:1009900042200021C0F88014FFF796FD054600BFF5
:1009A000706A80077FF556AFFFF78EFD401B022867
:1009B000F6D9032002B0BDE8F08100BF0027C4F2E1
:1009C000422700203866FFF77FFD022D05460DD136
:1009D0003068800140F1DE80FFF776FD401B022881
:1009E0004FF00300F4D902B0BDE8F0813068800117
:1009F0004FD5FFF769FD401B02284FF00300F5D9E2
:100A0000F1E700BF40F20C00C2F20000006844F6BB
:100A1000D351C1F26201A0FB0101480A019000BF5D
:100A200000BF0198411E002801913FF413AF00BFA1
:100A30000198411E002801913FF40CAF00BF0198BE
:100A4000411E002801913FF405AF00BF0198411EEF
:100A500000280191E4D1FDE600210160FFF734FD9B
:100A6000054600BF306880077FF5F1AEFFF72CFD2B
:100A7000401B02284FF00300F4D9B4E77068216AE4
:100A800000F480328A4209D1616A00F47010884211
:100A900004D1002002B0BDE8F08100BF012002B007
:100AA000BDE8F08140F004003062306A40F001009F
:100AB0001EE000BF20F001003062306A20F0040028
:100AC0003062FFF701FD054641F28837306A800742
:100AD00020D5FFF7F9FC401BB8424FF00300F5D9D1
:100AE00081E700BF20F001003062306A20F004008E
:100AF0003062FFF7E9FC054641F28837306A80072B
:100B000008D4FFF7E1FC401BB842F7D9032002B03C
:100B1000BDE8F081B8F1000F3FF59FAEF06920F01D
:100B20008050F06199E600BF40F48020306030686A
:100B300040F480301CE000BF20F48030306030682A
:100B400020F480203060FFF7BFFC0546306880034A
:100B50007FF55EAEFFF7B8FC401B64284FF0030042
:100B6000F4D940E720F480303060306820F48020F1
:100B70003060FFF7A9FC0546306880033FF548AEBA
:100B8000FFF7A2FC401B6428F6D9032002B0BDE8A1
:100B9000F08100BF206AB0F5803F05D17168A2687E
:100BA00021F40031114371607168626A21F474119B
:100BB00011430843706001203866FFF785FC044646
:100BC000306880013FF565AFFFF77EFC001B02280F
:100BD0004FF00300F4D906E770B528B1416A29B196
:100BE00000210161142106E0012070BD4168B1F5CA
:100BF000827F02D01C21002242500026866290F89B
:100C0000511029B980F85060054600F039F828469F
:100C1000022180F8511090E82E0002F482720C68D4
:100C200003F4044324F040040C601A4405F4006308
:100C300005691A4405F0020345691A4405F00103E9
:100C40008569C4691A4405F400731A4404F0380332
:100C5000046A1A4404F08003846A1A4304F40053BB
:100C60001A430A60042202EA15424A60CA6922F461
:100C70000062CA610121466580F85110304670BD9E
:100C800070B586B040F60004C4F20104006804F5B3
:100C90002051002688420596CDE90366029601D0D0
:100CA00006B070BD41F21800C4F20200016802AD46
:100CB00041F480510160016801F480510191019972
:100CC000016841F0040101600068294600F0040059
:100CD00001900198A020029002200390032005902B
:100CE0002046FFF7DDFA4020CDE9020620462946DE
:100CF0000496FFF7D5FA06B070BD00002DE9F0416B
:100D000082B01D4616460F460446FFF7DDFB94F8F9
:100D1000511001290ED18046002F4FF0010018BF5D
:100D2000002E03D102B0BDE8F08100BF94F850005E
:100D3000012803D1022002B0BDE8F081012084F82F
:100D400050000320002184F8510061652763A686C6
:100D5000E686A163A187E187A0682164B0F5004F12
:100D60002068616407D1016821F0400101600168D9
:100D700041F4804101600168490603D4016841F0F3
:100D8000400101606168731EE268B1FA81F1B3FA53
:100D900083F349095B09B2F5006F41EA030139D1D8
:100DA00031B137F8021BC1602763E08E0138E0865D
:100DB000E08E002870D0681C0BD11AE0216B31F84E
:100DC000022BC2602163E08E0138E086E08E0028AD
:100DD00062D0206881688907F0D4FFF775FBA0EB2B
:100DE0000800A842F2D338E0FFF76EFBE08E00283F
:100DF00052D0206881688907F6D5216B31F8022B23
:100E0000C2602163E08E0138E086E08E0028F0D1D8
:100E100042E000BF39B139780173206B01302063A3
:100E2000E08E0138E086E08EB0B3681C0BD123E081
:100E3000216B09780173206B01302063E08E01384B
:100E4000E086E08E40B3206881688907F0D4FFF720
:100E50003BFBA0EB0800A842F3D3012084F851002B
:100E6000002084F85000032002B0BDE8F08100BFEC
:100E7000FFF72AFBE08E78B1206881688907F7D5F3
:100E8000216B09780173206B01302063E08E0138FB
:100E9000E086E08E0028EFD12046022101222B4679
:100EA000CDF8008000F01EFA40B9204680210022D3
:100EB0002B46CDF8008000F015FA28B1606D40F0A7
:100EC0002000606520206065A06838B9002001908E
:100ED0002068C1680191806801900198012084F820
:100EE0005100002084F85000606D002818BF0120D8
:100EF00002B0BDE8F0810000411E0020B0EB116F90
:100F00001CBF012070474EF21002CEF20002516069
:100F10004EF62351CEF20001F0230B7007219060B2
:100F20001160704790F83C20012A4FF0020236D041
:100F300010B580F83D200268D2F804E0D2F808C06D
:100F40000C682EF07003234340F2FF74C4F20004D7
:100F5000A24253600ADCB2F1804F13D040F200434A
:100F6000C4F200039A420DD011E000BF42F60043E4
:100F7000C4F201039A4205D040F60003C4F2000314
:100F80009A4204D149682CF08003194391600121F1
:100F9000002280F83D1080F83C20BDE8104010464B
:100FA00070470000002804BF0120704710B590F87A
:100FB0003D1031B9002180F83C10044600F070F873
:100FC0002046022180F83D10016840F2FF740B6852
:100FD000C4F2000442F6004CA142C4F2010C15DC3C
:100FE000B1F1804F1AD040F20042C4F200029142A7
:100FF00014D0A14218DCB1F1804F1DD040F2004264
:10100000C4F20002914217D01AE000BF614505D03A
:1010100040F60002C4F200029142EAD1826823F055
:1010200070031343A142E6DD614505D040F600029E
:10103000C4F20002914203D1026923F440731343C6
:10104000846923F08002D0F804E0C368224361453C
:101050000A60CB62C1F828E002D14269CCF83020A6
:1010600001224A610B69DB0703D00B6923F00103FE
:101070000B6180F8462080F83E2080F83F2080F801
:10108000402080F8412080F8422080F8432080F8FA
:10109000442080F8452080F83D20002010BD00004D
:1010A0000068B0F1804F18BF704781B041F21C005A
:1010B000C4F20200016841F001010160006800F023
:1010C00001000090009801B07047000090F83D10BA
:1010D00001291CBF01207047022180F83D100068E3
:1010E00040F2FF71C4F20001884209DCB0F1804F88
:1010F00012D040F20041C4F2000188420CD012E04C
:1011000042F60041C4F20101884205D040F60001D8
:10111000C4F20001884206D1816801F00701062966
:1011200004BF00207047016841F001010160002008
:101130007047000090F83C20012A4FF002026CD06A
:1011400080B580F83D20D0F800C04FF67772DCF80B
:10115000083023EA0202CCF808200B684F2B29DC68
:101160001F2B45DD202B46D0302B44D0402B40F0A8
:10117000AF80D1F804E0C968DCF82030DCF820202A
:1011800022F00102CCF82020DCF8182022F0F00236
:1011900042EA011123F00A0242EA0E02CCF81810CA
:1011A000CCF82020DCF8081041F0470121F0300194
:1011B00028E000BF6F2B33DDB3F5005F74D0B3F5CB
:1011C000805F21D0702B40F08380D1E901E3C968B2
:1011D000DCF8082043EA0E0322F47F4243EA0121AF
:1011E0001143CCF80810DCF8081041F0770109E051
:1011F0000BB1102B6CD1DCF8081021F070011943F1
:1012000041F00701CCF808100022012180F83D10C0
:10121000002180F83C10BDE880401046704700BFB8
:10122000502B21D0602B53D1D1F804E0C968DCF8F1
:101230002030DCF8202022F01002CCF82020DCF84E
:10124000182022F4704242EA013123F0A00242EA5F
:101250000E12CCF81810CCF82020DCF8081041F061
:10126000670121F01001CDE7D1F804E0C968DCF88E
:101270002030DCF8202022F00102CCF82020DCF81D
:10128000182022F0F00242EA011123F00A0242EA99
:101290000E02CCF81810CCF82020DCF8081041F031
:1012A000570121F02001ADE7D1E901E3C968DCF87D
:1012B000082043EA0E0322F47F4243EA012111434E
:1012C000CCF80810DCF8081041F480419AE700BF20
:1012D00001229AE7FEE70000FEE70000FEE70000BB
:1012E000704700002DE9F04381B0089C98461546F0
:1012F0000E468146FFF7E8F8201A00EB0804FFF7D6
:10130000E3F840F20C01C2F200010968C1F3CB31ED
:1013100061430091D9F800108A683240921BB2FAFA
:1013200082F2520995423DD0074618F1010031D0B2
:10133000FFF7CAF8C01BA04238D2009800990028D5
:10134000A1F101010091D9F80010896808BF044695
:1013500001EA0600801BB0FA80F040098542E7D11F
:1013600020E000BF88683040801BB0FA80F0400960
:10137000854217D088683040801BB0FA80F0400961
:1013800085420FD088683040801BB0FA80F0400959
:10139000854207D088683040801BB0FA80F0400951
:1013A0008542DFD1002001B0BDE8F083D9E900011A
:1013B0004268B1F5827F22F0E00242600BD1D9F899
:1013C0000810B1F5004F02D0B1F5806F03D101686C
:1013D00021F040010160D9F82810B1F5005F07D174
:1013E000016821F400510160016841F4005101607D
:1013F000012089F85100002089F85000032001B035
:10140000BDE8F083B0B540F60044C4F201042046C4
:101410004FF400710122FFF751F80120FEF72CFF75
:1014200020464FF400710022FFF748F820464FF4A1
:101430008071FFF73DF80028F8D040F27805C2F23D
:10144000000528680021416220464FF48071FFF7B3
:101450002FF80128F8D02868406A80B200F033FFE6
:101460004CF29C4246F67203CBF22002C3F6A17303
:1014700000F03CFF0023C3F6E073002200F036FFCB
:1014800000F018FE0021C4F22011044601F053F9C7
:1014900000281CBF0024C4F220142046002101F0C3
:1014A00058F9002818BF00242046B0BD40F278004B
:1014B000C2F20000FFF70ABE70470000FFF70AB84B
:1014C00070470000FEE700009F2908BF70472DE924
:1014D000F04F81B08246002800F0CF81BAF17F0F33
:1014E00000F0CB818946002900F0C78140F208084E
:1014F000C2F2000898F8000098F80110821E023924
:1015000000273F2888BF4FF6FF77D0B2C9B23A46CE
:1015100000F002FA98F8000098F80110023801393A
:10152000C0B2C9B23A4600F0F7F998F8000098F84E
:1015300001100238C0B23A4600F0EEF998F8000007
:1015400098F8011002380131C0B2C9B23A4600F031
:10155000E3F998F8000098F8011002380231C0B29F
:10156000C9B23A4600F0D8F998F8000098F801108E
:1015700001380239C0B2C9B23A4600F0CDF998F844
:10158000000098F8011001380139C0B2C9B23A46DA
:1015900000F0C2F998F8000098F801100138C0B2C4
:1015A0003A4600F0B9F998F8000098F801100138AF
:1015B0000131C0B2C9B23A4600F0AEF998F8000065
:1015C00098F8011001380231C0B2C9B23A4600F0B1
:1015D000A3F998F8011098F800000239C9B23A4608
:1015E00000F09AF998F8011098F800000139C9B292
:1015F0003A4600F091F998F8000098F801103A4640
:1016000000F08AF998F8011098F800000131C9B289
:101610003A4600F081F998F8011098F8000002317C
:10162000C9B23A4600F078F998F8000098F801102D
:1016300001300239C0B2C9B23A4600F06DF998F8EB
:10164000000098F8011001300139C0B2C9B23A4621
:1016500000F062F998F8000098F801100130C0B26B
:101660003A4600F059F998F8000098F80110013056
:101670000131C0B2C9B23A4600F04EF998F8000004
:1016800098F8011001300231C0B2C9B23A4600F0F8
:1016900043F998F8000098F8011002300239C0B2FE
:1016A000C9B23A4600F038F998F8000098F80110ED
:1016B00002300139C0B2C9B23A4600F02DF998F8AB
:1016C000000098F801100230C0B23A4600F024F948
:1016D00098F8000098F8011002300131C0B2C9B288
:1016E0003A4600F019F998F8000098F80110023015
:1016F0000231C0B2C9B23A4600F00EF9A9F10200B7
:10170000AAF10201CFB25FFA80FB384659464FF486
:10171000784200F001F9A9F10100C6B2384631461D
:101720004FF4784200F0F8F8384649464FF47842D2
:1017300000F0F2F809F10100C4B2384621464FF436
:10174000784200F0E9F809F10200C5B238462946AE
:101750004FF4784200F0E0F8AAF10100C7B2384631
:1017600059464FF4784200F0D7F8384631464FF4E6
:10177000784200F0D1F8384649464FF4784200F0FC
:10178000CBF8384621464FF4784200F0C5F8384689
:1017900029464FF4784200F0BFF8504659464FF4BE
:1017A000784200F0B9F8504631464FF4784200F0E4
:1017B000B3F8504649464FF4784200F0ADF8504631
:1017C00021464FF4784200F0A7F8504629464FF4DE
:1017D000784200F0A1F80AF10100C7B23846594634
:1017E0004FF4784200F098F8384631464FF478428A
:1017F00000F092F8384649464FF4784200F08CF8F1
:10180000384621464FF4784200F086F8384629469B
:101810004FF4784200F080F80AF10200C7B238466F
:1018200059464FF4784200F077F8384631464FF485
:10183000784200F071F8384649464FF4784200F09B
:101840006BF8384621464FF4784200F065F8384688
:1018500029464FF4784200F05FF840F6004000223D
:10186000C4F201000821BAF1410F38BF0122FEF78E
:1018700025FE88F800A088F8019001B0BDE8F04F7F
:1018800070470000F0B581B0002500BFECB22046E3
:1018900000211F2200F040F820469F211F2200F067
:1018A0003BF8681C45B2B5F1FF3FEFDC002500BFF7
:1018B000ECB2002021461F2200F02EF87F202146A6
:1018C0001F2200F029F89F2C05F10105F0D3012615
:1018D00004E000BF7E2C06F101061BD2F4B2012702
:1018E000402C0BD2FDB220462946002200F014F80D
:1018F0009E2D07F10107F5D3ECE700BFFDB22046AE
:1019000029464FF6FF7200F007F89E2D07F10107F8
:10191000F4D3DFE701B0F0BD70B582B0144642B237
:10192000002A5CD49F295AD8421C4B1CD2B2DBB28D
:1019300000F0B2FA40F600452C20C4F201058DF803
:101940000500284601210022FEF7B8FD28460221A5
:101950000022FEF7B3FD40F2C006C2F200060DF110
:101960000501304601224FF47A73FFF7C7F9284684
:1019700001210122FEF7A2FD2846012100228DF857
:101980000640FEF79BFD284602210122FEF796FD48
:101990000DF10601304601224FF47A73FFF7AEF9DC
:1019A000284601210122FEF789FD200A8DF8070053
:1019B000284601210022FEF781FD2846022101224E
:1019C000FEF77CFD0DF10701304601224FF47A73DA
:1019D000FFF794F9284601210122FEF76FFD02B0BE
:1019E00070BD0000B0B582B040F60044C4F20104FE
:1019F00020464FF480610022FEF760FD1420FEF7C0
:101A00003BFC20464FF4806101220125FEF756FD84
:101A10009620FEF731FC2046012100228DF800506F
:101A2000FEF74CFD204602210022FEF747FD40F262
:101A3000C005C2F200056946284601224FF47A73B8
:101A4000FFF75CF9204601210122FEF737FD9620C1
:101A5000FEF712FC11208DF8010020460121002222
:101A6000FEF72CFD204602210022FEF727FD0DF196
:101A70000101284601224FF47A73FFF73FF920460F
:101A800001210122FEF71AFDFF20FEF7F5FB42F6C9
:101A90007810C0F6000000F0A9F936208DF8020099
:101AA000204601210022FEF709FD204602210022E6
:101AB000FEF704FD0DF10201284601224FF47A736E
:101AC000FFF71CF9204601210122FEF7F7FC082050
:101AD0008DF80300204601210022FEF7EFFC20468E
:101AE00002210122FEF7EAFC0DF103012846012242
:101AF0004FF47A73FFF702F9204601210122FEF725
:101B0000DDFC3A208DF80400204601210022FEF77A
:101B1000D5FC204602210022FEF7D0FC01A9284670
:101B200001224FF47A73FFF7E9F8204601210122E0
:101B3000FEF7C4FC05208DF8050020460121002297
:101B4000FEF7BCFC204602210122FEF7B7FC0DF196
:101B50000501284601224FF47A73FFF7CFF820469B
:101B600001210122FEF7AAFC20208DF80600204664
:101B700001210022FEF7A2FC204602210022FEF7EE
:101B80009DFC0DF10601284601224FF47A73FFF700
:101B9000B5F8204601210122FEF790FC002000212B
:101BA0008022A02300F078F929208DF80700204634
:101BB00001210022FEF782FC204602210022FEF7CE
:101BC0007DFC0DF10701284601224FF47A73FFF7DF
:101BD00095F8204601210122FEF770FC6420FEF7F3
:101BE0004BFB02B0B0BD000090B0FEF781FC0024BA
:101BF0000120CDE90B44CDE9094406900A904FF449
:101C0000E0104FF4803102250F9006A8CDE90714AB
:101C1000CDE90D51FEF7E0FD20B1EFF3108072B673
:101C2000FEE700BF0F20CDE900054FF48060CDE94D
:101C30000304684602210294FEF7F0FC20B1EFF3A2
:101C4000108072B6FEE700BF002741F21800CDE910
:101C50000877CDE90677C4F20200016840F6004437
:101C600041F0200101600168C4F2010401F020018B
:101C7000009100990168A4F5806541F004010160BC
:101C80000168002201F004010091009901684FF001
:101C9000010841F0080101600068012100F008001E
:101CA000009000982846FEF709FC204640F20B61A0
:101CB000002240F20B69FEF701FC06AE4FF0020A6B
:101CC00028463146CDE906880897CDF824A0FEF7CE
:101CD000E7FA20463146CDE90698CDE9087AFEF7C5
:101CE000DFFA4FF48070CDE90607204631460897A9
:101CF000FEF7D6FA40F2C00004F51051C2F200001F
:101D00004FF482724FF40073082680E886000A219F
:101D1000C0E90377C0E90573C661C0E90877C0E987
:101D20000A71FEF759FF28B1EFF3108072B600BFB9
:101D3000FEE700BF40F27006C2F200064FF080419D
:101D4000304640F8081F47214FF6FF720997CDE94A
:101D50000777CDE90077C0E90117C0E9032787615C
:101D6000FFF720F920B1EFF3108072B6FEE700BF55
:101D70004FF4805006F10804069006A92046FFF7AC
:101D8000D9F928B1EFF3108072B600BFFEE700BFAB
:101D900069462046FFF7C6F820B1EFF3108072B60F
:101DA000FEE700BFFFF782FBFFF71CFEFFF76AFDAF
:101DB00000240025C4F22504C4F22405FFF722FB09
:101DC000706000F07FFC0022234600F08FFA0022B2
:101DD0002B4600F0A1F900F047FA50213070FFF7D0
:101DE00073FB6420FEF748FAE8E700002DE9F047AE
:101DF00082B004460078FF2802D102B0BDE8F08727
:101E000040F6004540F2C00AC4F20105C2F2000AE1
:101E10000DF106080DF1070903E000BF2078FF2847
:101E2000EBD067788DF806002846012100220234A5
:101E3000FEF744FB284602210022FEF73FFB5046F6
:101E4000414601224FF47A73FEF758FF28460121DC
:101E50000122FEF733FB002FE0D0002614F8010B1F
:101E600001218DF8070028460022FEF727FB2846AF
:101E700002210122FEF722FB5046494601224FF47F
:101E80007A73FEF73BFF284601210122FEF716FB7D
:101E90000136BE42E2D3C1E72DE9F04784B040F6F7
:101EA000004407462A20C4F20104154689468DF8ED
:101EB000060020460121002298464FF0000AFEF756
:101EC000FDFA204602210022FEF7F8FA40F2C00691
:101ED000C2F200060DF10601304601224FF47A737A
:101EE000FEF70CFF204601210122FEF7E7FA20460B
:101EF000012100228DF807A0FEF7E0FA204602211A
:101F00000122FEF7DBFA0DF10701304601224FF402
:101F10007A73FEF7F3FE204601210122FEF7CEFA86
:101F20002046012100228DF80870FEF7C7FA2046EE
:101F300002210122FEF7C2FA02A9304601224FF423
:101F40007A73FEF7DBFE204601210122FEF7B6FA86
:101F50002046012100228DF809A0FEF7AFFA2046A5
:101F600002210122FEF7AAFA0DF1090130460122F1
:101F70004FF47A73FEF7C2FE204601210122FEF7DC
:101F80009DFA2046012100228DF80A50FEF796FAAC
:101F9000204602210122FEF791FA0DF10A01304696
:101FA00001224FF47A73FEF7A9FE20460121012297
:101FB000FEF784FA2B208DF80B0020460121002229
:101FC000FEF77CFA204602210022FEF777FA0DF197
:101FD0000B01304601224FF47A73FEF78FFE204644
:101FE00001210122FEF76AFA2046012100228DF824
:101FF0000CA0FEF763FA204602210122FEF75EFAEA
:1020000003A9304601224FF47A73FEF777FE20468B
:1020100001210122FEF752FA2046012100228DF80B
:102020000D90FEF74BFA204602210122FEF746FAF8
:102030000DF10D01304601224FF47A73FEF75EFE7A
:10204000204601210122FEF739FA20460121002213
:102050008DF80EA0FEF732FA204602210122FEF78B
:102060002DFA0DF10E01304601224FF47A73FEF77E
:1020700045FE204601210122FEF720FA20460121DB
:1020800000228DF80F80FEF719FA20460221012266
:10209000FEF714FA0DF10F01304601224FF47A7366
:1020A000FEF72CFE204601210122FEF707FA04B0BC
:1020B000BDE8F08721F0004201F00043A2F1605238
:1020C000B2F5801F28BFD2F17F6C0BD95FEA001CEC
:1020D00043EAC20242EB507018BF704728BF20F09D
:1020E00001007047B2F5801FBCBF184670474FEA29
:1020F000410C1CF5001F02D2084600F027BC70B549
:1021000000F09EF900000089FFF7F6BF4FF0004095
:10211000A0F580007047000010B591EA030F48BF9A
:1021200083F0004300F1E881841A71EB030C05D2BF
:10213000121943EB0C03001B61EB0C014FEA115425
:10214000A4EB135CDFF81CE11EEA430F18BF9EEA04
:10215000445F00F0748021EA045123EA0E0343F443
:102160008013DCF1200E32D322FA0CFE10EB0E00AD
:1021700023FA0CFE41EB0E01CCF1200E03FA0EFE09
:1021800010EB0E00CCF1200E51F10001B1F5801FD3
:1021900032D201EB045112FA0EF2BDE8104058BFE2
:1021A0007047401C38BF5FEA420218BF70470028E2
:1021B00014BF20F0010041F100014FEA410313F583
:1021C000001F38BF7047A1F1C04100F087B9012A54
:1021D00043EB0302ACF1200CDCF11F0E32BF4FF0D9
:1021E000000E23FA0CF310EB030041EB0451B4EBA7
:1021F000115FD0D0A1EB045101F58011490801EB2A
:1022000004515FEA30000ED350F1000038BF12FADB
:102210000EFE08D1BDE81040C9E7401C38BF5FEA98
:102220004202CAD1C3E7BDE810404FEA410313F5AB
:10223000001F38BF7047A1F1C04100F04FB99EEABE
:10224000445F08D011EA5E0FBDE8104004BF01F002
:10225000004100207047BDE8104070B500F0F0F874
:1022600064FBBE3E0000E0FF4FEA41034FEA5353D8
:10227000A3F58063D3F11E03C8BFD3F1210C0CDD9D
:102280004FF0004242EAC12242EA505232FA03FCC5
:102290008CEAE17CACEBE1707047102BC4BF0020EE
:1022A000704703F5787CBCF1FF3F04D06FF000422B
:1022B00082EA2100704770B500F0C2F8499224808C
:1022C00000207047F2E7B0FA80F310FA03F10AD069
:1022D000C3F11D0303F580634FEA03524FEA4150F7
:1022E00002EBD12170474FF00000704770B5DFF866
:1022F00048C11CEA111E1EBF1CEA13159EEA0C0FF2
:1023000095EA0C0F00F06F8081EA03044EEAD47E58
:10231000AE4421EA4C1123EA4C1341F4801143F4FA
:102320008013AEF17F7EA1FB024CA0FB0365361942
:1023300055EB0C05A1FB034C4CF10003A0FB021C68
:1023400016EB0C06654153F10003094218BF46F035
:10235000010613F4007F0BD14FEA03314FEA053039
:1023600041EA155140EA165034036FF003020AE0C7
:102370004FEAC3214FEAC52041EA555140EA565081
:10238000F4026FF0020202EB2E4201EB025585EAE5
:10239000CE710AD05FEA440C18BF24F0004450F11B
:1023A000000041F1000120EAD47040F2FE7C624559
:1023B00000D270BDA84214BF4FF080444FF040449B
:1023C000002E08BF0024BEF1806FA8BFA1F1C0415C
:1023D000BDE8704080F2828001F1C04101F000410F
:1023E0004FF0000070470CEA13159EEA0C0F18BF5F
:1023F00095EA0C0F06D081EA030E4FF000000EF0B4
:10240000004170BD00F01CF88900013E00F007B8E3
:1024100000F009B84FEA430C5FEA5C5C08D081EA3F
:10242000030100F05BB84FEA410C5FEA5C5CF6D157
:1024300002494FF0000070470000FF070000F87FDE
:102440000EF1020E2EF0030E5EF8046B364205D438
:10245000012A43EB030515F5001F12D8012841EBB3
:10246000010C1CF5001F0CD80ED14FEAD17C0CEBEF
:102470004C0C0CF1020C15F5001F08BF4CEBD37C83
:1024800004E04FF0080C01E04FEAD37C0CEB4C0564
:1024900026FA05F606F00706B6F1040C06D20EEB96
:1024A000860CBDE870404CF0010C6047DFE80CF092
:1024B000090B02024FF00041A1F500214FF000008E
:1024C00070BD19461046012851EB010418BFD4F520
:1024D000001484BF002001F0004170BD0808A0F581
:1024E00000114FEA3101704710B591EA030F48BF60
:1024F00083F000433FF518AE841A71EB030C07D24A
:102500008CF0004C121943EB0C03001B61EB0C0127
:102510004FEA1154A4EB135CDFF8A4E11EEA430F69
:1025200018BF9EEA445F00F0B48021EA045123EA18
:102530006E035242C3EB6E0338BF5B1EDCF1200E0C
:1025400025D322FA0CFE10EB0E0043FA0CFE41EBF1
:102550000E01CCF1200E03FA0EFE10EB0E00CCF1B2
:10256000200E51F1000129D401EB045112FA0EF2B0
:10257000BDE8104058BF7047401C1CBFB2F1004F6F
:10258000704700280CBF491C20F00100704712EB77
:10259000020E43EB030218BF4FF0010E4EEA420257
:1025A000ACF1200CDCF11E0E56D943FA0CFE10EBF8
:1025B0000E00CCF11E0E51F1FF31D5D50EF1010EFA
:1025C00012FA0EFE404141EB010101EB445C5FEA6F
:1025D0005C5C10D901EB045110EBDE7038BFBEF12A
:1025E000004FBDE8104018BF704700280CBF491CC1
:1025F00020F00100704734D24FEAD42C24F4006458
:1026000011F500111BD0B1FA81F20B3AA41AA41EE5
:10261000D2F12003914030FA03F31943904001EBCB
:10262000CC7101EB0451002CBDE81040A8BF7047ED
:1026300001F1C04101F000414FF000007047B0FAD5
:1026400080F310FA03F102D1BDE810407047E41A9C
:10265000173C4805C90AE2E701EB0451BDE8104008
:10266000704749104FEA300001EB0451BDE81040BB
:1026700002E04FF0000170474A0008BF0042F8D066
:10268000B2F5001F28BF704701F000414FF0000075
:1026900070479EEA445F07D011EA5E0FBDE8104024
:1026A00004BF002100207047BDE8104070B5FFF75F
:1026B000C7FE00BF40DFF63E104683F00041704782
:1026C0000000E0FF43004FEAD30C4FEA3C0C4340CC
:1026D0001FBF40070CF1605113F0FE4F70471CF014
:1026E000006F03D10CF00041002070470CF0004354
:1026F00043EA507040EACC0010B500F0E1F800BFAA
:10270000000000924FEA0001FFF7E8BE4FF00041E1
:10271000A1F500214FF00000704710B500F034F82B
:102720000CBF0120002010BD10B500F02DF814BF23
:102730000120002010BD10B500F05AF88CBF012018
:10274000002010BD10B500F053F82CBF0120002070
:1027500010BD10B500F080F894BF0120002010BD1E
:1027600010B500F079F834BF0120002010BD4010F2
:1027700058BFC0F14040491058BFC1F140418142AB
:10278000EFF300807047000050EA010C00F1138065
:102790001CF5000F58BFBCF5000F01D488427047EC
:1027A00007D710F5000F58BF11F5000F15D4884258
:1027B0007047894270471CF5000F04D5BCF5000F27
:1027C000F7D5814270474FF0807C1CEB400F38BF3B
:1027D0001CEB410F01D28142704710B500F070F838
:1027E000922449004FF000504FF08051FFF7BFBFD7
:1027F00050EA010C00F113801CF5000F58BFBCF526
:10280000000F01D48842704707D710F5000F58BF5A
:1028100011F5000F15D488427047894270471CF5A6
:10282000000F04D5BCF5000FF7D5814270474FF07B
:10283000807C1CEB400F38BF1CEB410F01D2814262
:10284000704710B500F03CF8922449004FF08050DA
:102850004FF00051FFF78BBF50EA010C00F11380DD
:102860001CF5000F58BFBCF5000F01D4884270471B
:1028700007D710F5000F58BF11F5000F15D4884287
:102880007047894270471CF5000F04D5BCF5000F56
:10289000F7D5814270474FF0807C1CEB400F38BF6A
:1028A0001CEB410F01D28142704710B500F008F8CF
:1028B000922449004FF000504FF08051FFF757BF6E
:1028C0000EF1020E2EF0030E5EF8044B244204D4E7
:1028D0004FEA4102B2F17F4F11D84FEA4003B3F102
:1028E0007F4F0CD80ED14FEAD07C0CEB4C0C0CF186
:1028F000020CB2F17F4F08BF4CEBD17C04E04FF0EB
:10290000080C01E04FEAD17C0CEB4C0324FA03F4F1
:1029100004F00704B4F1040C06D20EEB840CBDE8FD
:1029200010404CF0010C6047DFE80CF00708020291
:102930004FF00040A0F5800010BD0846420018BFCF
:10294000D2F1807288BF00F0004010BDFF2141EA43
:10295000D050C005704700000000000000000102D8
:102960000304060708090102020304050607080913
:102970000A0B0C0D0E0F1010B103012C2DB2030128
:102980002C2DB306012C2D012C2DB40107C003A260
:102990000284C101C5C2020A00C3028A2AC4028A93
:1029A000EEC5010EE010021C07123732292D292531
:1029B0002B3900010310E110031D07062E2C292DD1
:1029C0002E2E373F00000210FFFF0000F029000804
:1029D000000000201000000050010008002A00083C
:1029E0001000002010070000700100080000000027
:1029F00001000000100000000250000000127A00E8
:04000005080000ED02
:00000001FF
